{
  "_format": "hh-sol-artifact-1",
  "contractName": "HospitalRegistry",
  "sourceName": "contracts/HospitalRegistry.sol",
  "abi": [
    {
      "inputs": [],
      "stateMutability": "nonpayable",
      "type": "constructor"
    },
    {
      "anonymous": false,
      "inputs": [
        {
          "indexed": true,
          "internalType": "address",
          "name": "wallet",
          "type": "address"
        }
      ],
      "name": "HospitalDeactivated",
      "type": "event"
    },
    {
      "anonymous": false,
      "inputs": [
        {
          "indexed": true,
          "internalType": "address",
          "name": "wallet",
          "type": "address"
        },
        {
          "indexed": false,
          "internalType": "string",
          "name": "name",
          "type": "string"
        },
        {
          "indexed": false,
          "internalType": "string",
          "name": "apiEndpoint",
          "type": "string"
        }
      ],
      "name": "HospitalRegistered",
      "type": "event"
    },
    {
      "anonymous": false,
      "inputs": [
        {
          "indexed": true,
          "internalType": "address",
          "name": "wallet",
          "type": "address"
        },
        {
          "indexed": false,
          "internalType": "string",
          "name": "name",
          "type": "string"
        },
        {
          "indexed": false,
          "internalType": "string",
          "name": "apiEndpoint",
          "type": "string"
        },
        {
          "indexed": false,
          "internalType": "bool",
          "name": "active",
          "type": "bool"
        }
      ],
      "name": "HospitalUpdated",
      "type": "event"
    },
    {
      "inputs": [],
      "name": "admin",
      "outputs": [
        {
          "internalType": "address",
          "name": "",
          "type": "address"
        }
      ],
      "stateMutability": "view",
      "type": "function"
    },
    {
      "inputs": [
        {
          "internalType": "address",
          "name": "wallet",
          "type": "address"
        }
      ],
      "name": "deactivateHospital",
      "outputs": [],
      "stateMutability": "nonpayable",
      "type": "function"
    },
    {
      "inputs": [
        {
          "internalType": "address",
          "name": "wallet",
          "type": "address"
        }
      ],
      "name": "getHospital",
      "outputs": [
        {
          "components": [
            {
              "internalType": "address",
              "name": "wallet",
              "type": "address"
            },
            {
              "internalType": "string",
              "name": "name",
              "type": "string"
            },
            {
              "internalType": "string",
              "name": "apiEndpoint",
              "type": "string"
            },
            {
              "internalType": "bool",
              "name": "active",
              "type": "bool"
            },
            {
              "internalType": "uint256",
              "name": "registeredAt",
              "type": "uint256"
            }
          ],
          "internalType": "struct HospitalRegistry.Hospital",
          "name": "",
          "type": "tuple"
        }
      ],
      "stateMutability": "view",
      "type": "function"
    },
    {
      "inputs": [
        {
          "internalType": "uint256",
          "name": "index",
          "type": "uint256"
        }
      ],
      "name": "getHospitalAt",
      "outputs": [
        {
          "internalType": "address",
          "name": "",
          "type": "address"
        }
      ],
      "stateMutability": "view",
      "type": "function"
    },
    {
      "inputs": [],
      "name": "getHospitalCount",
      "outputs": [
        {
          "internalType": "uint256",
          "name": "",
          "type": "uint256"
        }
      ],
      "stateMutability": "view",
      "type": "function"
    },
    {
      "inputs": [
        {
          "internalType": "uint256",
          "name": "",
          "type": "uint256"
        }
      ],
      "name": "hospitalList",
      "outputs": [
        {
          "internalType": "address",
          "name": "",
          "type": "address"
        }
      ],
      "stateMutability": "view",
      "type": "function"
    },
    {
      "inputs": [
        {
          "internalType": "address",
          "name": "",
          "type": "address"
        }
      ],
      "name": "hospitals",
      "outputs": [
        {
          "internalType": "address",
          "name": "wallet",
          "type": "address"
        },
        {
          "internalType": "string",
          "name": "name",
          "type": "string"
        },
        {
          "internalType": "string",
          "name": "apiEndpoint",
          "type": "string"
        },
        {
          "internalType": "bool",
          "name": "active",
          "type": "bool"
        },
        {
          "internalType": "uint256",
          "name": "registeredAt",
          "type": "uint256"
        }
      ],
      "stateMutability": "view",
      "type": "function"
    },
    {
      "inputs": [
        {
          "internalType": "address",
          "name": "wallet",
          "type": "address"
        }
      ],
      "name": "isActiveHospital",
      "outputs": [
        {
          "internalType": "bool",
          "name": "",
          "type": "bool"
        }
      ],
      "stateMutability": "view",
      "type": "function"
    },
    {
      "inputs": [
        {
          "internalType": "address",
          "name": "wallet",
          "type": "address"
        },
        {
          "internalType": "string",
          "name": "name",
          "type": "string"
        },
        {
          "internalType": "string",
          "name": "apiEndpoint",
          "type": "string"
        }
      ],
      "name": "registerHospital",
      "outputs": [],
      "stateMutability": "nonpayable",
      "type": "function"
    },
    {
      "inputs": [
        {
          "internalType": "address",
          "name": "wallet",
          "type": "address"
        },
        {
          "internalType": "string",
          "name": "name",
          "type": "string"
        },
        {
          "internalType": "string",
          "name": "apiEndpoint",
          "type": "string"
        },
        {
          "internalType": "bool",
          "name": "active",
          "type": "bool"
        }
      ],
      "name": "updateHospital",
      "outputs": [],
      "stateMutability": "nonpayable",
      "type": "function"
    }
  ],
  "bytecode": "0x6080806040523461002857600080546001600160a01b03191633179055610efb908161002e8239f35b600080fdfe6080604052600436101561001257600080fd5b60003560e01c806349d41e831461079f5780638e36cfb814610731578063973334d0146106ef578063af70f3e314610662578063c49b09b51461054b578063c82412b914610509578063f093cf8014610470578063f851a44014610447578063f9ab9e86146100ad5763fe45a81d1461008a57600080fd5b346100a85760003660031901126100a8576020600254604051908152f35b600080fd5b346100a85760803660031901126100a8576100c6610c2a565b60243567ffffffffffffffff81116100a8576100e6903690600401610c7e565b9060443567ffffffffffffffff81116100a857610107903690600401610c7e565b916064351515606435036100a8576000546001600160a01b039061012e9082163314610e41565b808316600052600160205261014b81604060002054161515610e83565b8083166000526001602052604060002093825167ffffffffffffffff81116103725761017a6001870154610d62565b601f8111610400575b50806020601f821160011461039357600091610388575b508160011b916000199060031b1c19161760018601555b80519467ffffffffffffffff8611610372576101d06002820154610d62565b601f8111610327575b50602095601f811160011461028e579161024f61027192846102639796957f7b21ead401942012f4244c5edb2a3a564b2da0f8e47f8f9375c1044b4f4d197c999a600091610283575b508160011b916000199060031b1c19161760028201555b600301805460ff191660ff606435151516179055565b604051948594606086526060860190610cd5565b908482036020860152610cd5565b946064351515604084015216930390a2005b90508401518b610222565b601f1981166002830160005260206000209060005b81811061030f57509260018361024f937f7b21ead401942012f4244c5edb2a3a564b2da0f8e47f8f9375c1044b4f4d197c9a9b6102639a99989661027198106102f6575b5050811b016002820155610239565b86015160001960f88460031b161c191690558b806102e7565b858a015183556020998a0199600190930192016102a3565b600282016000526020600020601f880160051c81019160208910610368575b601f0160051c01905b81811061035c57506101d9565b6000815560010161034f565b9091508190610346565b634e487b7160e01b600052604160045260246000fd5b90508401518761019a565b91506001870160005260206000206000925b601f19831684106103e8576001935082601f198116106103cf575b5050811b0160018601556101b1565b86015160001960f88460031b161c1916905587806103c0565b868101518255602093840193600190920191016103a5565b600187016000526020600020601f830160051c810160208410610440575b601f830160051c82018110610434575050610183565b6000815560010161041e565b508061041e565b346100a85760003660031901126100a8576000546040516001600160a01b039091168152602090f35b346100a85760203660031901126100a8576001600160a01b0380610492610c2a565b1660005260016020526040600020908154166104b060018301610d9c565b916104bd60028201610d9c565b6104f8600460ff600385015416930154916104ea604051968796875260a0602088015260a0870190610cd5565b908582036040870152610cd5565b911515606084015260808301520390f35b346100a85760203660031901126100a8576004356002548110156100a857610532602091610d15565b905460405160039290921b1c6001600160a01b03168152f35b346100a8576020806003193601126100a857610565610c2a565b906000608060405161057681610c40565b82815260608482015260606040820152826060820152015260018060a01b0380921680600052600182526105b283604060002054161515610e83565b600052600181526040600020604051916105cb83610c40565b83825416835261064f6105e060018401610d9c565b82850190815261063c6105f560028601610d9c565b9160408701928352600460ff6003880154169660608901971515885201549460808801958652604051988998828a525116908801525160a0604088015260c0870190610cd5565b9051858203601f19016060870152610cd5565b9151151560808401525160a08301520390f35b346100a85760203660031901126100a85761067b610c2a565b6106af60018060a01b03809261069682600054163314610e41565b1691826000526001602052604060002054161515610e83565b806000526001602052600360406000200160ff1981541690557f15adb08b0c08c5f6ce96550bc504baaba1b761f1711211ec68416eef11ed55e5600080a2005b346100a85760203660031901126100a8576001600160a01b03610710610c2a565b166000526001602052602060ff600360406000200154166040519015158152f35b346100a85760203660031901126100a85760043560025481101561075a57610532602091610d15565b60405162461bcd60e51b815260206004820152601d60248201527f486f73706974616c3a20696e646578206f7574206f6620626f756e64730000006044820152606490fd5b346100a85760603660031901126100a8576107b8610c2a565b60243567ffffffffffffffff81116100a8576107d8903690600401610c7e565b60443567ffffffffffffffff81116100a8576107f8903690600401610c7e565b9161080e60018060a01b03600054163314610e41565b6001600160a01b03811615610bec576001600160a01b0381811660009081526001602052604090205416610ba75760405161084881610c40565b6001600160a01b038281168083526020808401868152604080860189905260016060870181905242608088015260009485529092529120835181546001600160a01b03191693169290921782555180519192919067ffffffffffffffff82116103725781906108ba6001860154610d62565b601f8111610b54575b50602090601f8311600114610ae757600092610adc575b50508160011b916000199060031b1c19161760018301555b604081015180519067ffffffffffffffff8211610372576109166002850154610d62565b601f8111610a95575b50602090601f8311600114610a2257918060049492608094600092610a17575b50508160011b916000199060031b1c19161760028501555b61097660608201511515600386019060ff801983541691151516179055565b0151910155600254916801000000000000000083101561037257610a126109f9926109c88560017f628ba2fd5877ba0e6d4fb27dcc1d0fe28675ed8d2624e5cb3accda5f4c2250049701600255610d15565b81546001600160a01b0384811660039390931b92831b921b1916179055604080518181529485949091850190610cd5565b83810360208501526001600160a01b0390911695610cd5565b0390a2005b01519050898061093f565b90601f198316916002860160005260206000209260005b818110610a7d57509260019285926080966004989610610a64575b505050811b016002850155610957565b015160001960f88460031b161c19169055898080610a54565b92936020600181928786015181550195019301610a39565b600285016000526020600020601f840160051c810160208510610ad5575b601f830160051c82018110610ac957505061091f565b60008155600101610ab3565b5080610ab3565b0151905087806108da565b600186016000908152602081209350601f198516905b818110610b3c5750908460019594939210610b23575b505050811b0160018301556108f2565b015160001960f88460031b161c19169055878080610b13565b92936020600181928786015181550195019301610afd565b909150600185016000526020600020601f840160051c810160208510610ba0575b90849392915b601f830160051c82018110610b915750506108c3565b60008155859450600101610b7b565b5080610b75565b60405162461bcd60e51b815260206004820152601c60248201527f486f73706974616c3a20616c72656164792072656769737465726564000000006044820152606490fd5b60405162461bcd60e51b8152602060048201526016602482015275486f73706974616c3a207a65726f206164647265737360501b6044820152606490fd5b600435906001600160a01b03821682036100a857565b60a0810190811067ffffffffffffffff82111761037257604052565b90601f8019910116810190811067ffffffffffffffff82111761037257604052565b81601f820112156100a85780359067ffffffffffffffff82116103725760405192610cb3601f8401601f191660200185610c5c565b828452602083830101116100a857816000926020809301838601378301015290565b919082519283825260005b848110610d01575050826000602080949584010152601f8019910116010190565b602081830181015184830182015201610ce0565b600254811015610d4c5760026000527f405787fa12a823e0f2b7631cc41b3ba8828b3321ca811111fa75cd3aa3bb5ace0190600090565b634e487b7160e01b600052603260045260246000fd5b90600182811c92168015610d92575b6020831014610d7c57565b634e487b7160e01b600052602260045260246000fd5b91607f1691610d71565b90604051918260008254610daf81610d62565b90818452602094600191600181169081600014610e1f5750600114610de0575b505050610dde92500383610c5c565b565b600090815285812095935091905b818310610e07575050610dde9350820101388080610dcf565b85548884018501529485019487945091830191610dee565b92505050610dde94925060ff191682840152151560051b820101388080610dcf565b15610e4857565b60405162461bcd60e51b81526020600482015260136024820152722437b9b834ba30b61d103737ba1030b236b4b760691b6044820152606490fd5b15610e8a57565b60405162461bcd60e51b8152602060048201526013602482015272121bdcdc1a5d185b0e881b9bdd08199bdd5b99606a1b6044820152606490fdfea26469706673582212200ff5f08ab8857f73ff31c2fd7d23f0af35600d18aa59b24be625823eb128628964736f6c63430008180033",
  "linkReferences": {},
  "deployedLinkReferences": {}
}