{
  "_format": "hh-sol-artifact-1",
  "contractName": "InsurancePolicy",
  "sourceName": "contracts/InsurancePolicy.sol",
  "abi": [
    {
      "inputs": [],
      "stateMutability": "nonpayable",
      "type": "constructor"
    },
    {
      "anonymous": false,
      "inputs": [
        {
          "indexed": true,
          "internalType": "uint256",
          "name": "policyId",
          "type": "uint256"
        }
      ],
      "name": "PolicyCancelled",
      "type": "event"
    },
    {
      "anonymous": false,
      "inputs": [
        {
          "indexed": true,
          "internalType": "uint256",
          "name": "policyId",
          "type": "uint256"
        },
        {
          "indexed": true,
          "internalType": "address",
          "name": "customer",
          "type": "address"
        },
        {
          "indexed": false,
          "internalType": "string",
          "name": "policyType",
          "type": "string"
        }
      ],
      "name": "PolicyCreated",
      "type": "event"
    },
    {
      "inputs": [],
      "name": "admin",
      "outputs": [
        {
          "internalType": "address",
          "name": "",
          "type": "address"
        }
      ],
      "stateMutability": "view",
      "type": "function"
    },
    {
      "inputs": [
        {
          "internalType": "uint256",
          "name": "policyId",
          "type": "uint256"
        }
      ],
      "name": "cancelPolicy",
      "outputs": [],
      "stateMutability": "nonpayable",
      "type": "function"
    },
    {
      "inputs": [
        {
          "internalType": "address",
          "name": "customer",
          "type": "address"
        },
        {
          "internalType": "string",
          "name": "policyType",
          "type": "string"
        },
        {
          "internalType": "uint256",
          "name": "premium",
          "type": "uint256"
        },
        {
          "internalType": "uint256",
          "name": "maxCoverage",
          "type": "uint256"
        },
        {
          "internalType": "uint256",
          "name": "durationDays",
          "type": "uint256"
        },
        {
          "internalType": "bytes32",
          "name": "documentHash",
          "type": "bytes32"
        }
      ],
      "name": "createPolicy",
      "outputs": [
        {
          "internalType": "uint256",
          "name": "",
          "type": "uint256"
        }
      ],
      "stateMutability": "nonpayable",
      "type": "function"
    },
    {
      "inputs": [
        {
          "internalType": "address",
          "name": "",
          "type": "address"
        },
        {
          "internalType": "uint256",
          "name": "",
          "type": "uint256"
        }
      ],
      "name": "customerPolicies",
      "outputs": [
        {
          "internalType": "uint256",
          "name": "",
          "type": "uint256"
        }
      ],
      "stateMutability": "view",
      "type": "function"
    },
    {
      "inputs": [
        {
          "internalType": "address",
          "name": "customer",
          "type": "address"
        }
      ],
      "name": "getCustomerPolicies",
      "outputs": [
        {
          "internalType": "uint256[]",
          "name": "",
          "type": "uint256[]"
        }
      ],
      "stateMutability": "view",
      "type": "function"
    },
    {
      "inputs": [
        {
          "internalType": "uint256",
          "name": "policyId",
          "type": "uint256"
        }
      ],
      "name": "getPolicy",
      "outputs": [
        {
          "components": [
            {
              "internalType": "uint256",
              "name": "id",
              "type": "uint256"
            },
            {
              "internalType": "address",
              "name": "customer",
              "type": "address"
            },
            {
              "internalType": "string",
              "name": "policyType",
              "type": "string"
            },
            {
              "internalType": "uint256",
              "name": "premium",
              "type": "uint256"
            },
            {
              "internalType": "uint256",
              "name": "maxCoverage",
              "type": "uint256"
            },
            {
              "internalType": "uint256",
              "name": "startDate",
              "type": "uint256"
            },
            {
              "internalType": "uint256",
              "name": "endDate",
              "type": "uint256"
            },
            {
              "internalType": "enum InsurancePolicy.PolicyStatus",
              "name": "status",
              "type": "uint8"
            },
            {
              "internalType": "bytes32",
              "name": "documentHash",
              "type": "bytes32"
            }
          ],
          "internalType": "struct InsurancePolicy.Policy",
          "name": "",
          "type": "tuple"
        }
      ],
      "stateMutability": "view",
      "type": "function"
    },
    {
      "inputs": [
        {
          "internalType": "uint256",
          "name": "policyId",
          "type": "uint256"
        }
      ],
      "name": "isValid",
      "outputs": [
        {
          "internalType": "bool",
          "name": "",
          "type": "bool"
        }
      ],
      "stateMutability": "view",
      "type": "function"
    },
    {
      "inputs": [
        {
          "internalType": "uint256",
          "name": "",
          "type": "uint256"
        }
      ],
      "name": "policies",
      "outputs": [
        {
          "internalType": "uint256",
          "name": "id",
          "type": "uint256"
        },
        {
          "internalType": "address",
          "name": "customer",
          "type": "address"
        },
        {
          "internalType": "string",
          "name": "policyType",
          "type": "string"
        },
        {
          "internalType": "uint256",
          "name": "premium",
          "type": "uint256"
        },
        {
          "internalType": "uint256",
          "name": "maxCoverage",
          "type": "uint256"
        },
        {
          "internalType": "uint256",
          "name": "startDate",
          "type": "uint256"
        },
        {
          "internalType": "uint256",
          "name": "endDate",
          "type": "uint256"
        },
        {
          "internalType": "enum InsurancePolicy.PolicyStatus",
          "name": "status",
          "type": "uint8"
        },
        {
          "internalType": "bytes32",
          "name": "documentHash",
          "type": "bytes32"
        }
      ],
      "stateMutability": "view",
      "type": "function"
    },
    {
      "inputs": [],
      "name": "policyCount",
      "outputs": [
        {
          "internalType": "uint256",
          "name": "",
          "type": "uint256"
        }
      ],
      "stateMutability": "view",
      "type": "function"
    }
  ],
  "bytecode": "0x6080806040523461002857600380546001600160a01b03191633179055610b62908161002e8239f35b600080fdfe608080604052600436101561001357600080fd5b60003560e01c9081632b07fce314610788575080633e79e4c2146107305780634eccdb82146103ab578063b20e8bcc14610326578063d3e8948314610276578063de54d42914610258578063f408f48d146101a9578063f577a500146100b05763f851a4401461008257600080fd5b346100ab5760003660031901126100ab576003546040516001600160a01b039091168152602090f35b600080fd5b346100ab5760203660031901126100ab5760043560005260006020526040600020604051906100de8261098b565b8054825260018101546001600160a01b0316602083015261010160028201610a04565b60408301526003810154606083015260048101546080830152600581015460a083015260068101549160c08101928352600860ff6007840154169261014a60e084019485610ae8565b0154610100820152511515908161017d575b5060209181610171575b506040519015158152f35b90505142111582610166565b905051906003821015610193579015602061015c565b634e487b7160e01b600052602160045260246000fd5b346100ab576020806003193601126100ab576001600160a01b036101cb610947565b166000526001906001815260406000209160405191828185549182815201908195600052826000209060005b818110610245575050508361020d9103846109a8565b60405192818401908285525180915260408401949160005b8281106102325785870386f35b8351875295810195928101928401610225565b82548452928401929185019185016101f7565b346100ab5760003660031901126100ab576020600254604051908152f35b346100ab5760203660031901126100ab576004356000526000602052604060002080549060018060a01b03600182015416906102b460028201610a04565b61031c600383015492600481015460058201546006830154916102fd600860ff600787015416950154966040519a8b9a610120918c5260208c01528060408c01528a01906108fa565b966060890152608088015260a087015260c086015260e085019061093a565b6101008301520390f35b346100ab5760203660031901126100ab5760043561034f60018060a01b03600354163314610af4565b8060005260006020526103686040600020541515610aa9565b8060005260006020526007604060002001600260ff198254161790557fbb1ae509b65d9486a686f3f1b0435353031b5607109dc80aa4d063887e10f3e8600080a2005b346100ab5760c03660031901126100ab576103c4610947565b67ffffffffffffffff6024358181116100ab57366023820112156100ab5780600401358281116106345760405191610406601f8301601f1916602001846109a8565b81835236602483830101116100ab578160009260246020930183860137830101526003546001600160a01b039290608435906104459085163314610af4565b600254600019811461071a576001019182600255620151809182810292818404149015171561071a57814201421161071a57604051916104848361098b565b838352602083019386881685526040840191868352604435606086015260643560808601524260a0860152420160c0850152600060e085015260a43561010085015260005260006020526040600020938351855586600186019151166bffffffffffffffffffffffff60a01b82541617905551805191821161063457819061050f60028601546109ca565b601f81116106c7575b50602090601f83116001146106555760009261064a575b50508160011b916000199060031b1c19161760028301555b606081015160038301556080810151600483015560a0810151600583015560c08101516006830155600782019060e0810151906003821015610193576008926101009260ff80198354169116179055015191015581831660005260016020526040600020926002548454946801000000000000000086101561063457856105d591600160209801815561095d565b819291549060031b91821b91600019901b19161790557f21d0178f0cde2aed24022db30651dabafb4bbe431fb787fbc92113304d8e35496002549384926106296040519283928984521695888301906108fa565b0390a3604051908152f35b634e487b7160e01b600052604160045260246000fd5b01519050878061052f565b9250600285016000526020600020906000935b601f19841685106106ac576001945083601f19811610610693575b505050811b016002830155610547565b015160001960f88460031b161c19169055878080610683565b81810151835560209485019460019093019290910190610668565b909150600285016000526020600020601f840160051c810160208510610713575b90849392915b601f830160051c82018110610704575050610518565b600081558594506001016106ee565b50806106e8565b634e487b7160e01b600052601160045260246000fd5b346100ab5760403660031901126100ab57610749610947565b6001600160a01b03166000908152600160205260409020805460243591908210156100ab5760209161077a9161095d565b90546040519160031b1c8152f35b346100ab576020806003193601126100ab576004356107a68361098b565b60008352600082840152606060408401526000606084015260006080840152600060a0840152600060c0840152600060e084015260006101008094015280600052600082526107fb6040600020541515610aa9565b60005260008152604060002091604051926108158461098b565b8054845260018101546001600160a01b0390811684860190815290926108f1908661084260028601610a04565b9460408201958652600381015496606083019788526004820154966080840197885260058301549160a08501928352600860068501549460c0870195865261089660e060ff60078401541698019788610ae8565b015497868d019889528b6040519d8e9d8e5251908d0152511660408b015251966108ce610120988960608d01526101408c01906108fa565b985160808b01525160a08a01525160c08901525160e0880152519086019061093a565b51908301520390f35b919082519283825260005b848110610926575050826000602080949584010152601f8019910116010190565b602081830181015184830182015201610905565b9060038210156101935752565b600435906001600160a01b03821682036100ab57565b80548210156109755760005260206000200190600090565b634e487b7160e01b600052603260045260246000fd5b610120810190811067ffffffffffffffff82111761063457604052565b90601f8019910116810190811067ffffffffffffffff82111761063457604052565b90600182811c921680156109fa575b60208310146109e457565b634e487b7160e01b600052602260045260246000fd5b91607f16916109d9565b90604051918260008254610a17816109ca565b90818452602094600191600181169081600014610a875750600114610a48575b505050610a46925003836109a8565b565b600090815285812095935091905b818310610a6f575050610a469350820101388080610a37565b85548884018501529485019487945091830191610a56565b92505050610a4694925060ff191682840152151560051b820101388080610a37565b15610ab057565b60405162461bcd60e51b815260206004820152601060248201526f141bdb1a58de481b9bdd08199bdd5b9960821b6044820152606490fd5b60038210156101935752565b15610afb57565b60405162461bcd60e51b81526020600482015260096024820152682737ba1030b236b4b760b91b6044820152606490fdfea2646970667358221220a5cf05f0da76b248e11ec99de74d29f752cdfcd1cad81dad97f58edda363cd7764736f6c63430008180033",
  "linkReferences": {},
  "deployedLinkReferences": {}
}