{
  "_format": "hh-sol-artifact-1",
  "contractName": "MockOracle",
  "sourceName": "contracts/MockOracle.sol",
  "abi": [
    {
      "inputs": [
        {
          "internalType": "address",
          "name": "_oracleNode",
          "type": "address"
        }
      ],
      "stateMutability": "nonpayable",
      "type": "constructor"
    },
    {
      "anonymous": false,
      "inputs": [
        {
          "indexed": true,
          "internalType": "address",
          "name": "previous",
          "type": "address"
        },
        {
          "indexed": true,
          "internalType": "address",
          "name": "current",
          "type": "address"
        }
      ],
      "name": "OracleNodeUpdated",
      "type": "event"
    },
    {
      "anonymous": false,
      "inputs": [
        {
          "indexed": true,
          "internalType": "uint256",
          "name": "requestId",
          "type": "uint256"
        },
        {
          "indexed": true,
          "internalType": "uint256",
          "name": "claimId",
          "type": "uint256"
        },
        {
          "indexed": false,
          "internalType": "bool",
          "name": "verified",
          "type": "bool"
        },
        {
          "indexed": false,
          "internalType": "string",
          "name": "note",
          "type": "string"
        }
      ],
      "name": "VerificationFulfilled",
      "type": "event"
    },
    {
      "anonymous": false,
      "inputs": [
        {
          "indexed": true,
          "internalType": "uint256",
          "name": "requestId",
          "type": "uint256"
        },
        {
          "indexed": true,
          "internalType": "uint256",
          "name": "claimId",
          "type": "uint256"
        },
        {
          "indexed": true,
          "internalType": "bytes32",
          "name": "patientId",
          "type": "bytes32"
        },
        {
          "indexed": false,
          "internalType": "address",
          "name": "hospital",
          "type": "address"
        },
        {
          "indexed": false,
          "internalType": "address",
          "name": "consumer",
          "type": "address"
        }
      ],
      "name": "VerificationRequested",
      "type": "event"
    },
    {
      "inputs": [],
      "name": "admin",
      "outputs": [
        {
          "internalType": "address",
          "name": "",
          "type": "address"
        }
      ],
      "stateMutability": "view",
      "type": "function"
    },
    {
      "inputs": [
        {
          "internalType": "uint256",
          "name": "requestId",
          "type": "uint256"
        },
        {
          "internalType": "bool",
          "name": "verified",
          "type": "bool"
        },
        {
          "internalType": "string",
          "name": "note",
          "type": "string"
        }
      ],
      "name": "fulfillVerification",
      "outputs": [],
      "stateMutability": "nonpayable",
      "type": "function"
    },
    {
      "inputs": [
        {
          "internalType": "uint256",
          "name": "requestId",
          "type": "uint256"
        }
      ],
      "name": "getRequest",
      "outputs": [
        {
          "components": [
            {
              "internalType": "uint256",
              "name": "id",
              "type": "uint256"
            },
            {
              "internalType": "uint256",
              "name": "claimId",
              "type": "uint256"
            },
            {
              "internalType": "bytes32",
              "name": "patientId",
              "type": "bytes32"
            },
            {
              "internalType": "address",
              "name": "hospital",
              "type": "address"
            },
            {
              "internalType": "address",
              "name": "consumer",
              "type": "address"
            },
            {
              "internalType": "bool",
              "name": "fulfilled",
              "type": "bool"
            },
            {
              "internalType": "bool",
              "name": "verified",
              "type": "bool"
            },
            {
              "internalType": "string",
              "name": "note",
              "type": "string"
            },
            {
              "internalType": "uint256",
              "name": "requestedAt",
              "type": "uint256"
            },
            {
              "internalType": "uint256",
              "name": "fulfilledAt",
              "type": "uint256"
            }
          ],
          "internalType": "struct MockOracle.Request",
          "name": "",
          "type": "tuple"
        }
      ],
      "stateMutability": "view",
      "type": "function"
    },
    {
      "inputs": [],
      "name": "oracleNode",
      "outputs": [
        {
          "internalType": "address",
          "name": "",
          "type": "address"
        }
      ],
      "stateMutability": "view",
      "type": "function"
    },
    {
      "inputs": [],
      "name": "requestCount",
      "outputs": [
        {
          "internalType": "uint256",
          "name": "",
          "type": "uint256"
        }
      ],
      "stateMutability": "view",
      "type": "function"
    },
    {
      "inputs": [
        {
          "internalType": "uint256",
          "name": "claimId",
          "type": "uint256"
        },
        {
          "internalType": "bytes32",
          "name": "patientId",
          "type": "bytes32"
        },
        {
          "internalType": "address",
          "name": "hospital",
          "type": "address"
        }
      ],
      "name": "requestVerification",
      "outputs": [
        {
          "internalType": "uint256",
          "name": "",
          "type": "uint256"
        }
      ],
      "stateMutability": "nonpayable",
      "type": "function"
    },
    {
      "inputs": [
        {
          "internalType": "uint256",
          "name": "",
          "type": "uint256"
        }
      ],
      "name": "requests",
      "outputs": [
        {
          "internalType": "uint256",
          "name": "id",
          "type": "uint256"
        },
        {
          "internalType": "uint256",
          "name": "claimId",
          "type": "uint256"
        },
        {
          "internalType": "bytes32",
          "name": "patientId",
          "type": "bytes32"
        },
        {
          "internalType": "address",
          "name": "hospital",
          "type": "address"
        },
        {
          "internalType": "address",
          "name": "consumer",
          "type": "address"
        },
        {
          "internalType": "bool",
          "name": "fulfilled",
          "type": "bool"
        },
        {
          "internalType": "bool",
          "name": "verified",
          "type": "bool"
        },
        {
          "internalType": "string",
          "name": "note",
          "type": "string"
        },
        {
          "internalType": "uint256",
          "name": "requestedAt",
          "type": "uint256"
        },
        {
          "internalType": "uint256",
          "name": "fulfilledAt",
          "type": "uint256"
        }
      ],
      "stateMutability": "view",
      "type": "function"
    },
    {
      "inputs": [
        {
          "internalType": "address",
          "name": "node",
          "type": "address"
        }
      ],
      "name": "setOracleNode",
      "outputs": [],
      "stateMutability": "nonpayable",
      "type": "function"
    }
  ],
  "bytecode": "0x60803461008d57601f610cf138819003918201601f19168301916001600160401b038311848410176100925780849260209460405283398101031261008d57516001600160a01b038082169182810361008d57600080546001600160a01b03199081163317909155926100885750335b16906001541617600155604051610c4890816100a98239f35b61006f565b600080fd5b634e487b7160e01b600052604160045260246000fdfe6080604052600436101561001257600080fd5b6000803560e01c8063359624711461074457806339febe8b1461069d5780635badbe4c1461067f57806380cc0dda1461065657806381d12c581461059d578063855cb81814610239578063c58343ef1461009e5763f851a4401461007557600080fd5b3461009b578060031936011261009b57546040516001600160a01b039091168152602090f35b80fd5b503461009b57602036600319011261009b576040906004358161012084516100c581610a27565b82815282602082015282868201528260608201528260808201528260a08201528260c0820152606060e08201528261010082015201528082526003602052610111838320541515610ba5565b815260036020522060076040519161012883610a27565b80548352600181015460208401526002810154604084015260018060a01b03600382015416606084015260ff600482015460018060a01b0381166080860152818160a01c16151560a086015260a81c16151560c084015261018b60058201610a5a565b60e08401526006810154610100840152015461012082015260405180916020825280516020830152602081015160408301526040810151606083015260018060a01b03606082015116608083015260018060a01b0360808201511660a083015260a0810151151560c083015260c0810151151560e083015260e08101516101206102246101409283610100870152610160860190610b0f565b92610100810151828601520151908301520390f35b503461009b57606036600319011261009b5760243515156024350361009b5767ffffffffffffffff6044351161009b5736602360443501121561009b5767ffffffffffffffff604435600401351161009b573660246044356004013560443501011161009b576001546001600160a01b03163303610558576004358152600360205260408120906102cc82541515610ba5565b600482015460ff8160a01c166105135761ffff60a01b1916602435151560a81b60ff60a81b1617600160a01b17600483015561031e6044356004013561031560058501546109ed565b60058501610b4f565b80601f60443560040135116001146104885761035e90829060443560040135610478575b5060443560040135908160011b916000199060031b1c19161790565b60058301555b42600783015560048201546001909201805490926001600160a01b031690813b156104745782906040519283916380cd6b6d60e01b83526004356004840152602483015260243515156044830152608060648301528183816103d56084820160443560040135602460443501610bf1565b03925af180156104695761043d575b50905460405160243515158152604060208201527fbb24927cf544310e824fde76f063c48e966a952b67d8d42d027ad2115ae84b1260043591806104376040820160443560040135602460443501610bf1565b0390a380f35b67ffffffffffffffff811161045557604052386103e4565b634e487b7160e01b82526041600452602482fd5b6040513d84823e3d90fd5b8280fd5b6024915060443501013538610342565b6005830182526020822090825b60046044350135601f191681106104f6575060046044350135601f198116106104d1575b5050600160443560040135811b016005830155610364565b602460001960f86044356004013560031b161c199160443501013516905538806104b9565b909160206001819260248660443501013581550193019101610495565b60405162461bcd60e51b815260206004820152601960248201527f4f7261636c653a20616c72656164792066756c66696c6c6564000000000000006044820152606490fd5b60405162461bcd60e51b815260206004820152601760248201527f4f7261636c653a206e6f74206f7261636c65206e6f64650000000000000000006044820152606490fd5b503461009b57602036600319011261009b57604090600435815260036020522080549060018101549060028101549261064560018060a01b03806003850154169260ff60048601546105f160058801610a5a565b9360076006890154980154966040519a8b9a610140968c5260208c015260408b015260608a015281166080890152818160a01c16151560a089015260a81c16151560c08701528060e0870152850190610b0f565b916101008401526101208301520390f35b503461009b578060031936011261009b576001546040516001600160a01b039091168152602090f35b503461009b578060031936011261009b576020600254604051908152f35b503461009b57602036600319011261009b576004356001600160a01b03818116918290036104745780835416330361070b57816001549182167fb44f876fa533c09560aa8dafea21284d64e5cd208bc0e3163967bb3eafe5833d8580a36001600160a01b0319161760015580f35b60405162461bcd60e51b815260206004820152601160248201527027b930b1b6329d103737ba1030b236b4b760791b6044820152606490fd5b503461009b57606036600319011261009b576044356001600160a01b03811681036109e95760025460001981146109d557600181016002556107866080610a27565b6001810160805260043560a05260243560c0526001600160a01b03821660e052336101005261012083905261014083905260405167ffffffffffffffff60208201908111908211176109c1576020818101604090815285835261016092835242610180526101a0869052600193840186526003918290528520608051815560a080519482019490945560c051600282015560e05191810180546001600160a01b039384166001600160a01b031990911617905561010051600482018054610120516101405160ff60a81b90151560a81b1660ff60a01b91151590981b16929094166001600160b01b0319909416939093171793909317905551805160058301919067ffffffffffffffff81116109ad576020956108ad826108a786546109ed565b86610b4f565b8690601f831160011461094b57906108da9383610940575b50508160011b916000199060031b1c19161790565b90555b6101805160068201556101a051600790910155600254604080516001600160a01b03909316835233848401529091602435916004359184917f2a3167472262ae1dc825ef7342f369205907f89ed8a5b8a98a3d83feae606e5291a4604051908152f35b0151905038806108c5565b9192601f198416858452888420935b818110610996575090846001959493921061097d575b505050811b0190556108dd565b015160001960f88460031b161c19169055388080610970565b92938960018192878601518155019501930161095a565b634e487b7160e01b86526041600452602486fd5b634e487b7160e01b84526041600452602484fd5b634e487b7160e01b83526011600452602483fd5b5080fd5b90600182811c92168015610a1d575b6020831014610a0757565b634e487b7160e01b600052602260045260246000fd5b91607f16916109fc565b610140810190811067ffffffffffffffff821117610a4457604052565b634e487b7160e01b600052604160045260246000fd5b90604051916000908054610a6d816109ed565b90818652602092600191600181169081600014610af15750600114610ab5575b50505050829003601f01601f1916820167ffffffffffffffff811183821017610a4457604052565b909293506000528260002091836000935b838510610add575050505083010138808080610a8d565b805488860183015293019284908201610ac6565b60ff191688860152505050151560051b840101905038808080610a8d565b919082519283825260005b848110610b3b575050826000602080949584010152601f8019910116010190565b602081830181015184830182015201610b1a565b90601f8111610b5d57505050565b6000916000526020600020906020601f850160051c83019410610b9b575b601f0160051c01915b828110610b9057505050565b818155600101610b84565b9092508290610b7b565b15610bac57565b60405162461bcd60e51b815260206004820152601960248201527f4f7261636c653a2072657175657374206e6f7420666f756e64000000000000006044820152606490fd5b908060209392818452848401376000828201840152601f01601f191601019056fea26469706673582212205347f3d903ddd102e8fadc0d24304732a20f1a09278c422f933cb4afe386f40264736f6c63430008180033",
  "linkReferences": {},
  "deployedLinkReferences": {}
}